:100003004C45465420202020005249474854202084
:1000130020004D4F444520202020005049442020FB
:10002300202020004D45535341474520004445536C
:1000330049474E4544004D4F444520202020200091
:10004300504944202020202020004D455353414750
:100053004520200044455349474E4544200041551F
:10006300544F20202020004D414E55414C2020006C
:100073004B50202020202020004B492020202020EE
:1000830020004B442020202020200057616E672051
:100093005469616E796F6E670031373036313232B1
:1000A300370051513A313035393135323631330039
:1000B30050686F6E65313337373738303434393100
:1000C3000044657369676E65642062792057616EC9
:1000D30067002D2D2D2D2D2D2D2D2D2D2D2D2D2D40
:1000E3002D2D002D5350454349414C205448414E3A
:1000F3004B532D00596F75204A696E6779756E20D1
:1001030020202020004C696E204B6566616E202004
:1001130020202020200048752059697A686F7520B7
:100123002020202020200057616E67205A68616FCD
:1001330068756920202020004C696E204368656E35
:100143007869202020202054004D61205A686F6E6A
:100153006779616E672020205400200000000000B2
:1001630000000000000000000000000000C080004C
:10017300000000000000004040404000000000007C
:10018300000000000000000000000000000000006C
:10019300000000000000000000000000000000005C
:1001A300000000000000000000C00000000000E0AC
:1001B300000000000000000000000000000000003C
:1001C300000000000000000000000000000000002C
:1001D300000000000000000000000000000000001C
:1001E3000000000000048484FA82C3414120232CD0
:1001F30030509010100808080808C848080808007C
:1002030000000000000000000000000000080C04D3
:1002130004F20E00000000000000000000000000D7
:10022300000000000000000202FF22101212907F63
:1002330000020101000000000000000000000000B7
:10024300000000000000A0180000000000000000F3
:10025300000000000000000000000000000000009B
:1002630000000321211118880CFF0404060000007C
:10027300004061263870D09806030100B8000000E2
:100283000000000000000000000000000C1E92A20D
:10029300623F310D07000000000000000000000075
:1002A3000000008080808080848784FE4240434039
:1002B300406020202000000000000000000000003B
:1002C3000000C07006050C1810302040C0800000EC
:1002D300000000000000000000000000000000001B
:1002E3000000000000000001070000000000000003
:1002F300000000000000000103040C080F00008050
:10030300800000000000000000000002030303025D
:1003130000020202020203010101010100000000C8
:10032300000000000020202030180C077E00000091
:100333000002020206040000000000000000000C9E
:10034300060301000000000000000000000101039B
:100353000202020604040400000000000000000082
:10036300000000000000000000000000000000008A
:10037300000000000080C0201008080402010307E9
:100383000C08302040C08000000000000000000086
:100393000000000000000000001010D0101010003A
:1003A300100000000000000000000000000000003A
:1003B30000000000C0C0444848FC4444C47C44449A
:1003C3004642424040C00000000000000000000020
:1003D300000000000000000000000000000000001A
:1003E300000000000000000000000000000080C0CA
:1003F3006020180C060300002020201011F21214B4
:100403001808000000000101020604040C0808009B
:10041300000000008000888888C87C0F16122141E4
:1004230081800000000000000000000000000000C8
:1004330000000000010708000407F2020302820221
:100443000206060201000000000000000000000098
:100453000000000000000000000000000000000099
:100463000000000000000000000000000001010087
:10047300000000000000000000000000000F00006A
:100483000000000000000000000000000000000069
:100493000000000001010100000000000000000056
:1004A300000103020204040C0808181000000000F5
:1004B300101010100888888CB4BCA7E4647C4F86A5
:1004C3008202020202020202020206060000000089
:1004D3000000000000000000000000000000000019
:1004E3000000000000000000000000000000000009
:1004F30000000000000000000000000000000000F9
:1005030000000000000000000000000000000000E8
:1005130000000000000000000000000000000000D8
:1005230000000000000000000000000000000000C8
:1005330000000000000000000000000000000000B8
:1005430000000000000000000000000000000000A8
:100553000000000000000000000000000000000098
:100563000000000000000000000000000000000088
:1005730000008040402020201010D0D0C8C8C8C838
:10058300888404040404040404040402020202022E
:100593000202020202020202040404040404040428
:1005A300048488888890909090A0202040404080C8
:1005B3000000000000000000000000000000000038
:1005C3000000000000000000000000000000000028
:1005D3000000000000000000000000000000000018
:1005E3000000000080402020101008080C040202C4
:1005F3000101000080804040404040404040404076
:1006030040414141438784860C18300000000000BC
:100613000000000000002038080C0C0E8682C34343
:10062300414141414141414141414040808080003D
:100633000101020204080808101020408000000095
:1006430000000000000000000000000000000000A7
:10065300000000000000000000000000000000C0D7
:100663002018040300000000000000000000000048
:100673001C3E3F1F1F1E141008080808080808081E
:10068300080808101030202021161C00000000006C
:1006930000000000000000001C3E3F1F1F1E1E1430
:1006A3001008080808080808080808101020202166
:1006B300161C0000000000000000000000030303FC
:1006C300041820C00000000000000000000000002B
:1006D30000000000000000000000000000E01E0118
:1006E3000000000000000000000000800040201017
:1006F30000800040200010008000600010101000F7
:1007030000000000000000000000000000000000E6
:1007130000000000000000000000800060101000D6
:100723000080006000100000808040200000000076
:1007330000000000000000000000000000000000B6
:10074300000000011EE000000000000000000000A7
:10075300000000000000000000000000001FE00097
:100763000000000000000000000000000000000086
:100773000000000000000001000000000000000075
:100783000000000000000000000000000000000066
:100793000000000000000000000001000000000055
:1007A3000100000000020001000000000000000042
:1007B3000000000000000000000000000000000036
:1007C30000000000E01F0000000000000000000027
:1007D300000000000000000000000000000000070F
:1007E300182040800000000000000000000000000E
:1007F30000081060008000000000000000000000FE
:1008030000000000000000000000000000000000E5
:1008130000000000000000000000000000000000D5
:100823000000000000000000000000000000800045
:1008330060001008000000000000000000000080BD
:100843004020180601000000000000000000000026
:100853000000000000000000000000000000000095
:10086300000000010204080810202040404080805E
:1008730000000000000102040008103020202020A6
:100883002020604040C0C0C0C0C0C0C0C0C0C0C005
:10089300C0C0C0C0C0C0C0C0C0C0C0C0C0C0C040D5
:1008A30040404040202010080808000402010000D6
:1008B30000008080404060202010080402010100F5
:1008C3000000000000000000000000000000000025
:1008D3000000000000000000000000000000000015
:1008E3000000000000000000000000000000000005
:1008F30001020204040810101010202020202020E0
:1009030020404040404040808080808080808080C4
:1009130080808080808080808080808080C0404014
:100923004040202020101010101010100804040262
:1009330000010000000000000000000000000000B3
:1009430000000000000000000000000000000000A4
:100953000000000000000000000000000000000094
:100963000000000000000000000000000000000084
:100973000000000000000000000000000000000074
:100983000000000000000000000000000000000064
:100993000000000000000000000000000000000054
:1009A3000000000000000000000000000000000044
:1009B30000008080C04040400000000000000000B4
:1009C3000000E00000000000000000000000000044
:1009D3000000000000000000000000000000000014
:1009E3000000000000000000000000000000000004
:1009F30000000000000000000000000000000000F4
:100A030000000000000000000000000000000000E3
:100A130000000000000000000000000000000000D3
:100A23000000000000000000000000000080804083
:100A3300004000E0FF180800000000404444444424
:100A43004400FF0000808080800000000000000060
:100A53000000000000000000000000000000000093
:100A63000000000000000000000000000000000083
:100A7300E0380E000000000000000000000000004D
:100A83000000000000000000000000000000000063
:100A930000000000000080C04040404040C0000013
:100AA3000000000000000000000000010101000040
:100AB30000302E11FF880C06000808080404040205
:100AC3000202FF010100000000000000000000001E
:100AD3000000000000000000000000000000000013
:100AE300002000201010001008000800C0641C063D
:100AF3000104020002020202FE00000000000000E6
:100B030000F018080888C838008080000000000042
:100B1300000000000000000080C06010080603060B
:100B23001860C0000000000000000000000000008A
:100B330000000000000700000000000000000000AB
:100B430000003F0000000000000000000000000063
:100B53000000000000000000000000000000000092
:100B630000000000000000C030180E030100000068
:100B7300000000008040201601000000000000007B
:100B8300000F02020101010100000000000000004B
:100B930000000000100C040301000000000000002E
:100BA30000000003061830200000000000000000D1
:100BB300000000C000000000000000000000003042
:100BC300E000000000000000000000000000000042
:100BD3000000000000000000000000000000000012
:100BE3000000000000000000000000000000000FF3
:100BF30008040201000000000000000000000000E3
:100C030000000000000000000000000000000000E1
:100C130000000000000000000000000000000000D1
:100C23000000000000000000000000002020203031
:100C3300101808FF080808002010101090C8781C2E
:100C4300070404C47C0040C0808000000000000052
:100C53000000000000000000000000000000000091
:100C63000000000000000000000000000000000081
:100C73000000000000000000000000000000000071
:100C83000000000000000000000000000000000061
:100C93000000000000000000000000000000000051
:100CA3000000000000000000000000000000000041
:100CB3000000001F00000701000006030100000000
:100CC3000E04070100000000000103000000000003
:100CD3000000000000000000000000000000000011
:100CE3000000000000000000000000000000000001
:100CF30000000000000000000000000000000000F1
:100D030000000000000000000000000000000000E0
:100D130000000000000000000000000000000000D0
:100D230000000000000000000000000000000000C0
:100D330000000000000000000000000000000000B0
:100D430000000000000000000000000000000000A0
:100D53000000000000000000000000000000000090
:100D63000000000000000000000000000000000080
:100D73000000000000000000000000000000000070
:100D83000000000080808080808080808080808060
:100D93008080808080800000000000000000000050
:100DA3000000000000000000000000000000000040
:100DB3000000000000000000000000000000000030
:100DC3000000000000000000000000000000000020
:100DD3000000000000000000000000000000000010
:100DE30000000000000000000080C0C060602030F0
:100DF3003018080C0C0E060203030303030303035A
:100E030003030301010101010101010101010101C9
:100E130001010101010103030302020606060604A0
:100E23000C0C0C0818101030202040C080800000EB
:100E330000000000000000000000000000000000AF
:100E4300000000000000000000000000000000009F
:100E5300000000000000000000000000000000C0CF
:100E6300E03038180C0E06030101000000000000FA
:100E7300000000000000000000000000000000006F
:100E8300000000000000000000000000000000005F
:100E9300000000000000000000000000000000004F
:100EA3000000000000000000000000000101030634
:100EB3001E1C38E0C080000000000000000000009D
:100EC300000000000000000000000000000000001F
:100ED300000000000000000000000000000000FE11
:100EE300FF00000000000000000000000000000000
:100EF30000000000000000000000000000000000EF
:100F030000000000000000000003030303000000D2
:100F130000000000000000000000000003030303C2
:100F230000000000000000000000000000000000BE
:100F3300000000010FFFFE000000000000000000A1
:100F4300000000000000000000000000000000009E
:100F53000000000000000000000000000000000787
:100F6300FFFCC0C000000000000000000000000003
:100F7300000000000000000000000000000000006E
:100F8300000000000000000000000F0F1838303090
:100F93003030306060606060607030383818181826
:100FA3000F0F000000000000000000000000000020
:100FB30000C0E0F87F1F07000000000000000000F1
:100FC3008080C0406030180F0F1810302040404020
:100FD300808000000000000000000000000000000E
:100FE30000000303070E0C1030706060C0C08080E7
:100FF30080800000000000000000000000000000EE
:1010030000000000000000000000000000000000DD
:1010130000000000000000000000000000000000CD
:101023000000000000008080C0C0C0E0E0F8FC8C3D
:101033000603010080C06030181818181818191911
:101043009BDAFAFC3C18103060C080FC06020301F6
:10105300000000000000000000000000000000008D
:101063000000F8F88C86E6F3733B1B19F9F9F901D4
:101073000101030302060606060C0C0C0C08080803
:10108300080808181818181818181818181818180D
:1010930018181818181808080C0C0C0C040404046D
:1010A300060606070303030303F9F9F9191999D18E
:1010B300F1FBFEFFF1E0C0606060606060707C3F48
:1010C3001F070100000000000001030000000000F2
:1010D300000000000000000000000000000000000D
:1010E300000000000101000000000000FFFFFF807E
:1010F30000000000000000000000000000000000ED
:1011030000000000000000000000000000000000DC
:1011130000000000000000000000000000000000CC
:10112300000000000000000000FFFFFFF0000103CB
:10113300030303030301000000000000000000009C
:10114300000000000000000000000000000000009C
:10115300000000000000000000000000000000008C
:1011630080F010101090E0000080E030000000E0FC
:10117300301010101060C0000000000000000000DC
:1011830000000040C0C0404040404040404040401C
:101193004040404040400000000040C0C04040404C
:1011A30040404040404040404040404040000000FC
:1011B30000000000000000000000C0C0606060602C
:1011C300C000000000C0C060606060C0000000009C
:1011D3000000000000000000000000000000F01EFE
:1011E30003020202010100603C070000C0F09E837D
:1011F300C040406020180F00000000000000000005
:1012030000000000010100000000000000000000D9
:1012130000006030180C0C18306000010100000061
:1012230000000000000000000000000000000000BB
:101233000000000000000000003F6140404444649F
:101243003C0000003F6140404444643C0000000017
:0C1253000000000000000000000000008F
:0B2BCB00122ABE121D77121F2A80FE86
:101D7700E4FD7F2E122A26122C06122BD6122BE0F8
:101D8700122BEA122BFD7F017E00122AF6122BA5D9
:101D9700E4F508C374789508FD750D07750E01E421
:101DA700FBAF081226CE122BFD0508E508C3943CAD
:101DB70040E175083CC374789508FD750D07E4F597
:101DC7000EFBAF081226CE122BFD1508E508D3949B
:101DD7000050E2750D08750EFF750F0175105F7BDA
:101DE70080E4FDFF122838122BA5122BA5750D08CC
:101DF700750EFF750F0575105F7B80E4FDFF1228D8
:101E070038122BA5122BA5750D08750EFF750F0936
:101E170075105F7B80E4FDFF122838122BA5122B6B
:101E2700A5750D08750EFF750F0D75105F7B80E4A6
:101E3700FDFF122838122BA5122BA5E4F508750D06
:101E4700017B01AD08E4FF12289A7F1E7E00122A4B
:101E5700F60508E508C3941040E4122B98E4F50949
:101E6700E4F508750D017B01AD08AF0912289A0545
:101E770008E508C3941040EB7F1E7E00122AF60582
:101E870009E509C3942040D8122B98122A777B01C1
:101E9700E4FDFF1229D27B02E4FD7F141229D27BD5
:101EA70003E4FD7F281229D27B04E4FD7F3C12293D
:101EB700D27B05E4FD7F501229D27B067D03E4FF28
:101EC7001229D27B077D037F141229D27B087D0359
:101ED7007F281229D27B097D037F3C1229D27B0AF6
:101EE7007D037F501229D27B0B7D037F641229D299
:101EF7007B017D07E4FF122A4E12208CBF0A16E4ED
:101F0700FD7FA6122A26122B8BE4FD7FA7122A2615
:101F1700122B8B80E4E4FD7F2E122A26E4FD7FA698
:031F2700022A2665
:101F2A00E4FD7F2E122A26122A777D04AF23122877
:101F3A00EFE52014603A14606624026003021FD899
:101F4A007BFF7A007903E4FD7F1412293F7BFF7A35
:101F5A0000790C7D027F1412293F7BFF7A007915E4
:101F6A007D047F1412293F7BFF7A00791E02200527
:101F7A007BFF7A00790CE4FD7F1412293F7BFF7AFC
:101F8A000079157D027F1412293F7BFF7A00791EA2
:101F9A007D047F1412293F7BFF7A007927805C7BBE
:101FAA00FF7A007915E4FD7F1412293F7BFF7A003E
:101FBA00791E7D027F1412293F7BFF7A0079277DE3
:101FCA00047F1412293F7BFF7A007930802D7BFF32
:101FDA007A007939E4FD7F1412293F7BFF7A007970
:101FEA00437D027F1412293F7BFF7A00794D7D04DD
:101FFA007F1412293F7BFF7A0079577D067F1412DE
:10200A00293F12208C8F08E508B41020E5236406C6
:10201A006009051D05230523021F34E51DC3940528
:10202A004003021F34051D0520021F34E508B40FC2
:10203A001EE5236009151D15231523021F34E51D0E
:10204A00D394005003021F341520151D021F34E5D6
:10205A0008640D6003021F34E51D24FE600C146041
:10206A000F146012146015021F34122639021F342D
:10207A001221ED021F34122989021F3412233B0256
:02208A001F3401
:10263900E4FD7F2E122A26122A777D02AF22122864
:10264900EF7BFF7A007961E4FD7F1412293F7BFF5C
:102659007A00796A7D027F1412293FE51F700C7B8D
:102669004EFD7F641227D27B208010E51FB4011232
:102679007B20E4FD7F641227D27B4E7D027F6412AA
:1026890027D212208C8F09E509B41008752202752A
:102699001C0180A6E509B40F07E4F522F51C809A10
:1026A900E509B40D13E51C7004F51F808DE51C6464
:1026B900017087751F018082E509640E6003022697
:0426C90043122A7717
:0126CD0022EA
:1021ED00122A77E4FD7F2E122A26750D08750EFF33
:1021FD00750F1175105F7B807D06E4FF122838E4A2
:10220D00FB7D077F06122A4EE4FFFE122B288F2539
:10221D007F017E00122B288F247F027E00122B2837
:10222D008F21E4FD7F2E122A267D03AF1B1228EF8E
:10223D007BFF7A007973E4FD7F1412293F7BFF7ACF
:10224D0000797C7D027F1412293F7BFF7A0079850E
:10225D007D047F1412293FE525FB7A007515037562
:10226D001610E4FD7F5012275EE524FB7A007515EC
:10227D00037516107D027F5012275EE521FB7A0053
:10228D007515037516107D047F5012275EE4FD7FD2
:10229D002F122A2612208C8F09EF640A60F6E509A9
:1022AD00B41010E51EC394025009051E051B051B35
:1022BD00022215E509B40F10E51ED394004009154F
:1022CD001E151B151B022215E509640D7053E51E25
:1022DD0014601214601A240270247B007A00792590
:1022ED00E4F50E80147B007A007924750E028009C6
:1022FD007B007A007921750E047D50122416E4FFBF
:10230D00FE122B55AD25E4FFFE122B3FAD247F01B0
:10231D007E00122B3FAD217F027E00122B3F022249
:0D232D0015E509640E6003022215122A77DF
:01233A002280
:10298900E4FD7F2E122A26122A777BFF7A00798EA0
:10299900E4FDFF12293F7BFF7A00799C7D02E4FF69
:1029A90012293F7BFF7A0079A57D04E4FF12293FB4
:1029B9007BFF7A0079B37D06E4FF12293F12208C50
:0829C900EF640A60C5122A77D1
:0129D10022E3
:10233B00E4F509FD7F2E122A26122A77E509F4040B
:10234B00FD7BFF7A0079C4E4FF12293FC374029529
:10235B0009FD7BFF7A0079D5E4FF12293FC3740492
:10236B009509FD7BFF7A0079E6E4FF12293FC374E0
:10237B00069509FD7BFF7A0079F7E4FF12293FC32D
:10238B0074089509FD7BFF7A017908E4FF12293F58
:10239B00C3740A9509FD7BFF7A017919E4FF1229B1
:1023AB003FC3740C9509FD7BFF7A01792AE4FF1278
:1023BB00293FC3740E9509FD7BFF7A01793BE4FF3E
:1023CB0012293FC374109509FD7BFF7A01794CE408
:1023DB00FF12293F12208CBF0F11E509D394005037
:1023EB000302234715091509022347BF1011E509FD
:1023FB00C3940A400302234705090509022347EF4B
:0A240B00640A7003022347122A77C7
:0124150022A4
:082416008B0A8A0B890C8D0D65
:10241E00E4F510FD7F2E122A26E50D24F6FF7B2A09
:10242E00AD0E1227D2E4FD7F2F122A26E4FD7F2E59
:10243E00122A26E510FB7A00751503751610AD0EDF
:10244E00AF0D12275EE4FD7F2F122A2612208C8FED
:10245E000FEF640A60F6E50FC3940A5032E510C31D
:10246E009464502BE51075F00AA47C00250FFFEC48
:10247E0035F0FED3EF94FFEE648094804005751026
:10248E00FF80A9E51075F00AA4250FF510809DE5D3
:10249E000FB40B0AE51075F00A84F510808EE50F67
:1024AE00640C700EAB0AAA0BA90CE5101225C0E441
:1024BE008009E50F640E600302243AFD7F2E122A76
:1024CE0026E50D24F6FF7B20AD0E1227D2E4FD7F0C
:0424DE002F122A2669
:0124E20022D7
:0428EF008F0A8D0BB4
:1028F300E4FD7F2E122A26E4F50CE4F50DE50B75B5
:10290300F002A4FFC3E50D9FE5F06480F87480989E
:102913005019E50D650A600D7BFF7A01795DAD0DF8
:10292300AF0C12293F050D050D80D2050CE50CC334
:0C293300940A40C6E4FBAD0AFF0229D262
:10125F000000000000000000002F00000000070049
:10126F00070000147F147F1400242A7F2A120062C3
:10127F00640813230036495522500000050300006F
:10128F0000001C224100000041221C000014083EF7
:10129F0008140008083E0808000000A060000008BD
:1012AF000808080800006060000000201008040211
:1012BF00003E5149453E0000427F400000426151CF
:1012CF004946002141454B31001814127F10002769
:1012DF0045454539003C4A4949300001710905032C
:1012EF0000364949493600064949291E000036365D
:1012FF0000000000563600000008142241000014C0
:10130F00141414140000412214080002015109069C
:10131F0000324959513E007C1211127C007F49491D
:10132F004936003E41414122007F4141221C007F4E
:10133F0049494941007F09090901003E4149497A5C
:10134F00007F0808087F0000417F410000204041D6
:10135F003F01007F08142241007F40404040007F42
:10136F00020C027F007F0408107F003E4141413E86
:10137F00007F09090906003E4151215E007F0919CE
:10138F0029460046494949310001017F0101003FCB
:10139F004040403F001F2040201F003F4038403F4B
:1013AF0000631408146300070870080700615149AF
:1013BF00454300007F41410000552A552A55000042
:1013CF0041417F00000402010204004040404040C0
:1013DF00000001020400002054545478007F484458
:1013EF00443800384444442000384444487F00388F
:1013FF005454541800087E0901020018A4A4A47CB8
:10140F00007F080404780000447D40000040808481
:10141F007D00007F102844000000417F4000007CC9
:10142F0004180478007C08040478003844444438D5
:10143F0000FC242424180018242418FC007C080421
:10144F00040800485454542000043F444020003CFA
:10145F004040207C001C2040201C003C4030403C81
:10146F00004428102844001CA0A0A07C0044645411
:10147F004C44141414141414000000000000000055
:10148F000000000000000000000000F80000000055
:10149F00000000333000000000100C06100C060096
:1014AF00000000000000000040C07840C0784000FD
:1014BF00043F04043F040400007088FC083000005F
:1014CF00001820FF211E0000F008F000E0180000B7
:1014DF0000211C031E211E0000F008887000000070
:1014EF001E2123241927211010160E0000000000C2
:1014FF000000000000000000000000E018040200DF
:10150F00000000071820400000020418E00000004F
:10151F000040201807000000404080F0804040004D
:10152F000202010F01020200000000F000000000A3
:10153F000101011F01010100000000000000000077
:10154F0080B07000000000000000000000000000EC
:10155F000001010101010101000000000000000075
:10156F000030300000000000000000008060180410
:10157F00006018060100000000E010080810E000ED
:10158F00000F102020100F00001010F800000000B6
:10159F000020203F202000000070080808887000FD
:1015AF00003028242221300000300888884830007D
:1015BF000018202020110E000000C02010F800009D
:1015CF0000070424243F240000F808888808080036
:1015DF000019212020110E0000E01088881800004B
:1015EF00000F112020110E0000380808C83808001D
:1015FF000000003F0000000000708808088870009D
:10160F00001C222121221C0000E010080810E0001D
:10161F000000312222110F00000000C0C0000000A6
:10162F0000000030300000000000008000000000CB
:10163F0000008060000000000000804020100800C3
:10164F00000102040810200040404040404040008C
:10165F000404040404040400000810204080000067
:10166F000020100804020100007048080808F0006C
:10167F000000003036010000C030C828E810E0003C
:10168F000718272423140B000000C038E0000000C7
:10169F00203C23020227382008F888888870000031
:1016AF00203F202020110E00C03008080808380005
:1016BF00071820202010080008F808080810E0007C
:1016CF00203F202020100F0008F88888E80810001D
:1016DF00203F20202320180008F88888E8081000F1
:1016EF00203F200003000000C03008080838000029
:1016FF0007182020221E020008F808000008F8082A
:10170F00203F210101213F20000808F808080000B0
:10171F000020203F2020000000000808F8080800E3
:10172F00C08080807F00000008F888C0281808005B
:10173F00203F20012638200008F808000000000094
:10174F00203F20202020300008F8F800F8F808008B
:10175F00203F003F003F200008F830C00008F80885
:10176F00203F200007183F00E01008080810E00095
:10177F000F10202020100F0008F808080808F000AC
:10178F00203F210101010000E01008080810E000CF
:10179F000F18242438504F0008F888888888700064
:1017AF00203F2000030C3020007088080808380004
:1017BF000038202121221C00180808F808081800FA
:1017CF000000203F2000000008F808000008F8087B
:1017DF00001F202020201F000878880000C838082C
:1017EF00000007380E010000F80800F80008F800A4
:1017FF00033C0700073C030008186880806818083E
:10180F0020302C03032C30200838C800C8380800BB
:10181F000000203F2000000010080808C83808000A
:10182F002038262120201800000000FE02020200AE
:10183F000000007F40404000000C30C0000000005E
:10184F00000000010638C00000020202FE00000086
:10185F00004040407F00000000000402020204002C
:10186F000000000000000000000000000000000069
:10187F008080808080808080000202040000000051
:10188F000000000000000000000080808080000049
:10189F000019242222223F2008F800808000000037
:1018AF00003F112020110E000000008080800000FA
:1018BF00000E112020201100000000808088F80009
:1018CF00000E112020103F2000008080808000003B
:1018DF00001F222222221300008080F0888888189F
:1018EF000020203F202000000000808080808000AA
:1018FF00006B94949493600008F80080808000003F
:10190F00203F210000203F20008098980000000019
:10191F000020203F20200000000000809898000049
:10192F0000C08080807F000008F800008080800069
:10193F00203F24022D302000000808F8000000008E
:10194F000020203F20200000808080808080800049
:10195F00203F20003F20003F8080008080800000DB
:10196F00203F210000203F20000080808080000069
:10197F00001F202020201F0080800080800000009A
:10198F0080FFA12020110E000000008080808000C9
:10199F00000E112020A0FF808080800080808000BA
:1019AF0020203F21200001000000808080808000E7
:1019BF000033242424241900008080E0808000005C
:1019CF000000001F202000008080000000808000A9
:1019DF00001F202020103F2080808000008080800A
:1019EF0000010E300806010080800080008080809A
:1019FF000F300C030C300F000080800080808000BF
:101A0F000020312E0E3120008080800000808080E9
:101A1F0080818E7018060100008080808080800099
:101A2F000021302C2221300000000000807C0202B7
:101A3F0000000000003F404000000000FF000000D9
:101A4F0000000000FF0000000002027C8000000088
:101A5F000040403F000000000006010102020404A4
:101A6F000000000000000000808080808080808067
:101A7F0090A0E0C0C08080000000000000000000C7
:101A8F000000000000000000000000000000000047
:101A9F00040203010100000000000000000000002C
:101AAF000000000000000000001088C43300FE9208
:101ABF0092929292FE0000000000000000000000D1
:101ACF000000000000000000020100FF0000FF40C6
:101ADF0020030C1422414000000000000000000011
:101AEF000000000000000000040444C44F4444C43C
:101AFF0024242FB424040400000000000000000080
:101B0F00000000000000000040442424150C04FED7
:101B1F00040C1524244440000000000000000000C5
:101B2F00000000000000000000F80C0B0808F8404F
:101B3F00308F080808F800000000000000000000C7
:101B4F000000000000000000007F212121217F0004
:101B5F0000004380403F0000000000000000000034
:101B6F000000000000000000040444C44F4444C4BB
:101B7F0024242FB4240404000000000000000000FF
:101B8F00000000000000000040442424150C04FE57
:101B9F00040C152424444000000000000000000045
:101BAF0000000000000000000000F8494A4C48F80F
:101BBF00484C4A49F80000000000000000000000F7
:101BCF00000000000000000010101312121212FF8C
:101BDF00121212121310100000000000000000007B
:101BEF000000000000000000101010FF90209888E7
:101BFF0088E98E8888A89800000000000000000087
:101C0F0000000000000000000242817F000080847D
:101C1F004B28102847800000000000000000000043
:101C2F000000000000000000008060F887808484BE
:101C3F0084FE82838280800000000000000000008C
:101C4F000000000000000000010000FF00404040C5
:101C5F00407F4040404000000000000000000000B6
:101C6F000000000000000000101012D2565A52530C
:101C7F00525A56D21210100000000000000000004F
:101C8F0000000000000000004030007785858DB512
:101C9F00858585E70010600000000000000000004F
:101CAF0000000000000000004030EF242480E49C7E
:101CBF00105454FF547C100000000000000000007E
:101CCF00000000000000000001017F2151261827AD
:101CDF004445455F454544000000000000000000FA
:101CEF000000000000000000404042CC00808888C7
:101CFF00FF8888FF88888000000000000000000037
:101D0F0000000000000000000040201F2040504C49
:101D1F004340405F404040000000000000000000D2
:101D2F000000000000000000000000000001E21CA5
:101D3F00E0000000000000000000000000000000B4
:101D4F000000000000000000804020100C03000085
:101D5F0000030C30408080000000000000000000F5
:081D6F0000000000000000006C
:102ADC00EF4E60157D087C07ED1DAA0470011C4AA1
:092AEC0070F6EF1F70EA1E80E78E
:012AF50022BE
:102A1500F583E5822CF582E43583F583E493FF7D28
:012A250001AF
:102A2600ED6004D2938002C293C294E4FEC290EF9A
:102A360030E704D2918002C291D290EF25E0FF0EDA
:072A4600BE08EAD294D2930E
:012A4D002266
:102A9E00AC07ED24B0FFE4FD122A26EC54F0C4542A
:102AAE000F4410FF122A26EC540F4401FF022A266F
:102B6900E4FD7F8D122A267F14122A267FAF022ABE
:012B79002635
:102B7A00E4FD7F8D122A267F10122A267FAE022AB2
:012B8A002624
:102A7700E4FCEC24B0FFE4FD122A26E4FF122A2628
:102A87007F10122A26E4FB7D01E4FF122A260BBBE6
:062A970080F50CBC08DC18
:012A9D002216
:0627D200AA07A905AF03F0
:1027D800E4FCEF24E0FBEAD3947F4004E4FA09091F
:1027E800AF02AD01122A9EE4FC75F010EBA42CF5A3
:1027F80082E435F0F583E5822487F582E583341495
:10280800122A1F0CBC08E2AF02E904FD122A9EE45A
:10281800FC75F010EBA42CF582E435F0F583E58225
:10282800248FF582E5833414122A1F0CBC08E22297
:042B10008F1AA9056A
:102B14007F017E00AD0119ED6009AD1A7C0012251C
:032B2400D280F16B
:012B2700228B
:08275E008F118D128A138B14F8
:10276600E4F519F517E517C39515505FC3E51595FB
:102776001714FD7F0A122B10AC13AD14CFCDCFCE9C
:10278600CCCE1225E47C007D0A1225E48D18E519CD
:102796007020E51514FFE517C39F5016E518700F56
:1027A600E516C3138517F0A42511FF7B208013754A
:1027B6001901E516C3138517F0A42511FFE51824A2
:0B27C60030FBAD121227D20517809ADD
:0127D10022E5
:0A293F008F0E8D0F8B108A11891284
:10294900E4F513E50FC394004035E50F9408502FC3
:10295900AB10AA11A912851382758300122593FB66
:10296900601DAD0FAF0E1227D27408250EF50ED3D8
:0F29790094784007E4F50E050F050F051380D184
:01298800222C
:0429D200AA07A905A2
:1029D600E4F50E122A9EE4FC75F040EBA42477F58C
:1029E60082E5F0341A122A15050E0CBC10EAAF0265
:1029F600E904FD122A9EE4FC75F040EBA42497F549
:0E2A060082E5F0341A122A15050E0CBC10EAF7
:012A1400229F
:042838008F0A8B0C6C
:10283C00E4F511F512E50D5407700BE50D131313A8
:10284C00541FF513800AE50D131313541F04F513CD
:10285C008D13E513C3950D5034AD13AF0A122A9E98
:10286C00AC0AECC3950C5021AB0EAA0FA9100512A3
:10287C00E512AE117002051114F5828E83122593A8
:0D288C00FF7D01122A260C80D9051380C59E
:01289900221C
:1024E300D2927F647E00122ADCC2927F647E001245
:1024F3002ADCD292E4FD7FAE122A26E4FF122A26BA
:102503007F10122A267F40122A267F81122A267FD5
:10251300CF122A267FA1122A267FC8122A267FA637
:10252300122A267FA8122A267F3F122A267FD31239
:102533002A26E4FF122A267FD5122A267F80122A12
:10254300267FD9122A267FF1122A267FDA122A261B
:102553007F12122A267FDB122A267F40122A267F29
:1025630020122A267F02122A267F8D122A267F1402
:10257300122A267FA4122A267FA6122A267FAF12AA
:102583002A267FAF122A26122A77E4FDFF022A9E0B
:102A4E00AC07AA05E4FD7F29122A26E4FF122A26E6
:102A5E00AF04122A267F05122A26AF02122A26AFAB
:092A6E0003122A267F2F022A26FA
:10289A00EF25E025E0F9EDC313F50EEB7007E50D22
:1028AA007003FA8019BB0108E50D70047A0F800ED7
:1028BA00EB7009E50DB401047AF080027AFFAB01EE
:1028CA00E92404FFE433FEEBC39FEE6480F87480CE
:1028DA00985011AF03AD0E122A9EAF027D01122A43
:0428EA00260B80DC5D
:0128EE0022C7
:0626CE008D0B8B0CA90727
:1026D400E50EB40105750EFF8003E4F50EE930E064
:1026E4000119E50B30E002150BAF01AD0C122A9E67
:1026F400AB01EBD3950B500A7D01AF0E122A260BCA
:1027040080F0AF01AD0D122A9EAB01EBD3950B50B7
:102714000A7D01AF0E122A260B80F0AB0CEBD39589
:102724000D5017AF01AD03122A9EE4FA7D01AF0EDE
:10273400122A260ABA08F50B80E3AB0CEBD3950DED
:102744005017AD03AF0B122A9EE4FA7D01AF0E12AF
:092754002A260ABA08F50B80E3FD
:01275D002259
:082BF4007FF97E11DEFEDFFA1D
:012BFC0022B6
:10208C0075120A75B0FE85B0115311F0E51164F0AC
:10209C006049122BF485B0115311F0E51164F06016
:1020AC002C85B011E5112482601B24C0601224E041
:1020BC00600924F070147512018012751202800DE3
:1020CC00751203800875120F800375120AE51164EE
:1020DC00F0600885B0115311F080F275B0FD85B039
:1020EC00115311F0E51164F06049122BF485B01115
:1020FC005311F0E51164F0602C85B011E5112483C7
:10210C00601B24C0601224E0600924F07014751266
:10211C00048012751205800D751206800875120D5B
:10212C00800375120AE51164F0600885B011531133
:10213C00F080F275B0FB85B0115311F0E51164F02D
:10214C006049122BF485B0115311F0E51164F06065
:10215C002C85B011E5112485601B24C0601224E08D
:10216C00600924F070147512078012751208800D26
:10217C007512098008751210800375120AE5116436
:10218C00F0600885B0115311F080F275B0F785B08E
:10219C00115311F0E51164F06044122BF485B01169
:1021AC005311F0E51164F0602785B011E511248915
:1021BC00601B24C0601224E0600924F070127512B8
:1021CC000B800DE4F512800875120C800375120E4D
:1021DC00E51164F0600885B0115311F080F2AF1274
:0121EC0022D0
:052C06007F34DFFE0039
:012C0B0022A6
:092BD6007F4E7E02DEFEDFFA00F4
:012BDF0022D3
:092BE0007F0E7E61DEFEDFFA00CB
:012BE90022C9
:092BEA007F157E82DEFEDFFA0099
:012BF30022BF
:082BFD007FC27E8DDEFEDFFACF
:012C050022AC
:0C2B8B007F9D7ECF7D07DDFEDEFADFF6C9
:012B9700221B
:0C2B98007FF67ED47D19DDFEDEFADFF64C
:012BA400220E
:0C2BA5007FD97EAB7D49DDFEDEFADFF655
:012BB1002201
:102AF600D3EF9400EE94004010007D0B7CBEDCFE0C
:092B0600DDFCEF1F70EA1E80E700
:012B0F0022A3
:0D2BB200E4F5C7F5C5F5C675C380F5C4226E
:102B280075C78375C5018FC48EC375C65A75C6A58A
:062B380000AFC2122BB237
:012B3E002274
:102B3F0075C78375C5028FC48EC38DC275C65A758E
:062B4F00C6A500022BB236
:102B550075C78375C5038FC48EC375C65A75C6A55B
:042B650000022BB28D
:102ABE00122B7A122B691224E3122A77E4F520F5F1
:0E2ACE001DF523F51CF522F51EF51BF51F2244
:03000000022BBF11
:0C2BBF00787FE4F6D8FD758125022BCB51
:10259300BB010CE58229F582E5833AF583E02250FD
:1025A30006E92582F8E622BBFE06E92582F8E22247
:0D25B300E58229F582E5833AF583E4932261
:1025C000BB010689828A83F0225002F722BBFE01FA
:0225D000F322F4
:1025D200EF8DF0A4A8F0CF8CF0A428CE8DF0A42E1D
:0225E200FE22D7
:1025E400BC000BBE0029EF8DF084FFADF022E4CCDB
:1025F400F875F008EF2FFFEE33FEEC33FCEE9DECA4
:10260400984005FCEE9DFE0FD5F0E9E4CEFD22EDE9
:10261400F8F5F0EE8420D21CFEADF075F008EF2F33
:10262400FFED33FD4007985006D5F0F222C398FD24
:052634000FD5F0EA22C1
:00000001FF
